:100000003EC100005AC1000058C1000056C10000A6
:1000100054C1000052C1000050C100004EC1000098
:100020004CC100000C940A0B48C100000C946E0BEC
:1000300044C1000042C1000040C100003EC10000B8
:100040003CC100003AC1000038C1000036C10000C8
:1000500034C1000032C1000030C100002EC10000D8
:100060002CC100002AC1000028C1000026C10000E8
:1000700024C1000022C1000020C100001EC10000F8
:100080001CC100001AC1000018C10000084AD73B7B
:100090003BCE016E84BCBFFDC12F3D6C74319ABD57
:1000A00056833DDA3D00C77F11BED9E4BB4C3E917B
:1000B0006BAAAABE000000803F05A84CCDB2D44E6A
:1000C000B93836A9020C50B9918688083CA6AAAA6C
:1000D0002ABE000000803F0664EC1B3C04BC163EB8
:1000E0003BE5B93CC93C37C29E5A3D660498083E80
:1000F000EA69AAAA3E000000803F07634236B79B28
:10010000D8A71A39685618AEBAAB558C1D3CB7CC77
:100110005763BD6DEDFD753EF6177231BF000000EF
:10012000803F08000000BE922449123EABAAAA2AD2
:10013000BECDCCCC4C3E00000080BEABAAAAAA3EED
:1001400000000000BF000000803F00000000000829
:100150004178D3BB4387D1133D190E3CC3BD4282C6
:10016000AD2B3E68EC8276BED98FE1A93E4C80EF84
:10017000FFBE01C4FF7F3F00000000006E616E0003
:10018000696E660000407A10F35A00A0724E18099A
:100190000010A5D4E80000E87648170000E40B54EE
:1001A000020000CA9A3B000000E1F50500008096BD
:1001B0009800000040420F000000A08601000000EF
:1001C000102700000000E8030000000064000000A9
:1001D00000000A00000000000100000000002C7672
:1001E000D888DC674F0823DFC1DFAE59E1B1B7968D
:1001F000E5E3E453C63AE651997696E8E6C28426EA
:10020000EB898C9B62ED407C6FFCEFBC9C9F40F2C5
:10021000BAA56FA5F490055A2AF75C936B6CF96741
:100220006DC11BFCE0E40D47FEF520E6B500D0ED06
:10023000902E0300943577050080841E080000206E
:100240004E0A000000C80C333333330F986E12830C
:100250001141EF8D2114893BE65516CFFEE6DB18E0
:10026000D1844B381BF77C1D901DA4BBE4242032A5
:1002700084725E228100C9F124ECA1E53D2711249E
:100280001FBECFEFD0E1DEBFCDBF12E0A0E0B1E0F6
:10029000ECE7FFE200E00BBF02C007900D92A23E28
:1002A000B107D9F722E0A2EEB2E001C01D92AE3E46
:1002B000B207E1F735D20C94BC17A2CEDE9A90E0DB
:1002C0000E94F40ADE988BB3807F8BBB0895CF9396
:1002D000C82FDC988BB39C2F92959F70892B8BBB7A
:1002E00082E0ECDF8BB3CF70C82BCBBB82E0E6DFC4
:1002F000DC9ACF91089582E0EACF08958FEF8ABB10
:1003000083E08BBBDE9A81E090E00E94F40ADE98E5
:1003100085E090E00E94F40ADE9A81E090E00E947D
:10032000F40ADE98DE9A81E090E00E94F40ADE98FA
:1003300082E08BBB81E0C2DF8BB38BBB81E0BEDF91
:100340008BB38E608BBB81E0B9DF8BB38BBB81E05D
:10035000B5DF8BB386608BBB81E0B0DF8BB38BBB2B
:1003600081E0ACDFD89A81E0A9DFDC9AC4CF0895A0
:100370004F925F926F927F928F929F92AF92BF92B5
:10038000CF92DF92EF92FF920F931F93CF93DF9361
:10039000EC014A015B01890127ED33EA40E95FE3A3
:1003A000C501B4010E94EB0C6B017C0120E030E040
:1003B00044EB53E4C501B4010E94C80D9B01AC019C
:1003C000F80160857185828593850E94580CF8013B
:1003D000608771878287938720E030E0A901C5019B
:1003E000B4010E94F00E181664F56AE67FEF86E904
:1003F00090E09FD720E030E0A901C701B6010E943C
:10040000F00E181614F5412C512C3201CE01E9D70B
:100410006E857F85072E000C880B990B0E94860D38
:100420009B01AC01C301B2010E94580C2B013C019D
:100430009B01AC01C701B6010E94F00E181634F3FF
:1004400007C0412C512C320103C0412C512C3201E8
:1004500020E030E0A901C501B4010E94E40C88232A
:100460003CF566E970E08AE69FEF63D7A701960145
:10047000C301B2010E94F00E1816D4F4CE01B1D718
:100480006E857F85072E000C880B990B0E94860DC8
:100490009B01AC01C301B2010E94580C2B013C012D
:1004A0009B01AC01C701B6010E94E40C882334F320
:1004B00060E070E080E090E03CD7DF91CF911F9149
:1004C0000F91FF90EF90DF90CF90BF90AF909F90F3
:1004D0008F907F906F905F904F9008954F925F92B2
:1004E0006F927F928F929F92AF92BF92CF92DF9244
:1004F000EF92FF920F931F93CF93DF93EC014A018A
:100500005B0189012EEA37E441EE5DE3C501B401E8
:100510000E94EB0C2B013C01F80184869586A6868F
:10052000B78620E030E0A901C501B4010E94F00EB9
:1005300018160CF0ABC066E970E086E990E0F9D6D9
:1005400020E030E0A901C301B2010E94F00E1816AC
:100550000CF0D0C08E8D9F8D8538934038F58B81FF
:10056000811124C088A199A18F399240F8F48C811F
:1005700081111CC08C8D9D8D8939934030F58A8105
:10058000811123C0C12CD12C760126C08E8D9F8D68
:100590008538934058F48B81811108C088A199A1B6
:1005A0008F39924018F48C81882339F0B501A40169
:1005B00070589801CE0192DF9DC08C8D9D8D893938
:1005C000934018F48A81882339F0B501A40170584A
:1005D0009801CE0183DF8EC08AA19BA18732924011
:1005E00018F48D81882339F0B501A4017058980161
:1005F000CE0174DF7FC0888181FF15C0980140E083
:1006000050E060E771ECCE0169DF84E690E0ECD762
:10061000980140E050E064EB72ECCE01A9DE84E684
:1006200090E0E2D767C080FF15C0980140E050E03D
:1006300060E771ECCE0152DF84E690E0D5D79801F7
:1006400040E050E064EB72E4CE0192DE84E690E09C
:10065000CBD750C0CE01C5D66C857D85072E000C4A
:10066000880B990B0E94860D9B01AC01C701B60156
:100670000E94580C6B017C019B01AC01C301B201CB
:100680000E94F00E18160CF481CF34C020E030E048
:10069000A901C501B4010E94E40C88235CF56AE657
:1006A0007FEF8AE69FEF45D620E030E0A901C30145
:1006B000B2010E94E40C8823ECF4C12CD12C760109
:1006C000CE018FD68C859D85BC01990F880B990B27
:1006D0000E94860D9B01AC01C701B6010E94580C17
:1006E0006B017C019B01AC01C301B2010E94E40CCF
:1006F000882334F360E070E080E090E01AD6DF9168
:10070000CF911F910F91FF90EF90DF90CF90BF900E
:10071000AF909F908F907F906F905F904F900895D3
:10072000CF93DF93CDB7DEB7CA5AD1090FB6F8948D
:10073000DEBF0FBECDBFCED57C01BE016B567F4F55
:10074000CE0101965CD2C70109D784E2CB55DF4FB9
:100750008883C55AD040CA55DF4F8883C65AD040D7
:10076000C955DF4F8883C75AD0408FE0C855DF4F47
:100770008883C85AD040C755DF4F8883C95AD040B4
:10078000C655DF4F8883CA5AD040C7012AD60E9477
:10079000450C182F873789F49E012B563F4F40E0B8
:1007A00050E060E771E4C70199DEA701BE016B5616
:1007B0007F4FCE010196F7D038C0813651F49E01AB
:1007C0002B563F4F40E050E064E372E4C701D0DDB8
:1007D0002CC0843651F49E012B563F4F40E050E030
:1007E00064E372ECC701C4DD20C0813781F4BE012F
:1007F0006B567F4FCE01019669D4CE010196E9D4A4
:10080000BE016B567F4FCE010196F9D10EC09E01FD
:1008100028553F4FAE014B555F4F63E070E082E0DB
:1008200090E09ED582E090E0CCD5812F0E94410CD3
:10083000ACCF0F931F93CF93DF93EC018B01188202
:1008400019821A821B825ADDFCD631D79ED782E2EA
:1008500090E00E94360CCE01AFD784EF91E0C4D671
:100860001D821C821F821E82198618861A861B868C
:100870008C858E7F8C87FE01ED56FF4F8081807FB7
:1008800080838C85817C88628C871D861E861F866E
:10089000188A198A1A8A1B8A1C8A1D8A1E8A8F89BD
:1008A000807C82638F8B8F89806C8F8B888D887F13
:1008B0008260888F198E1A8E1B8E1C8E1D8E1E8E46
:1008C0008F8D807C8F8F8F8D8F738F8F88A1887F86
:1008D00088A385E591E09AA389A380EC9AE09CA384
:1008E0008BA31DA21EA21FA218A619A6F801108292
:1008F0001182128213821482158216821782108648
:100900001186128613861486158616861786DF9141
:10091000CF911F910F910895CF92DF92EF92FF92A6
:10092000CF93FC01ED56FF4F20812F70DC0137E0A3
:10093000239FA00DB11D11249C96CC9120812F7076
:10094000FC0137E0239FE00DF11D112462A570E04A
:1009500080E090E00E94860D20E539EF4EE85CE3F0
:100960000E94FB0E20E030E040E05FE30E94FB0EBF
:100970000E94F50F6B017C018C2F90E0880F991F6E
:10098000BC01990F880B990B0E94860DA701960157
:100990000E94FB0E0E94580D862FCF91FF90EF9082
:1009A000DF90CF9008952F923F924F925F926F9277
:1009B0007F928F929F92AF92BF92CF92DF92EF92EF
:1009C000FF920F931F93CF93DF93CDB7DEB7E897D6
:1009D0000FB6F894DEBF0FBECDBF2C013B01FB016B
:1009E000C484D584E684F78420E539EF4EE85CE3DF
:1009F00060857185828593850E94FB0E4B015C01A9
:100A0000E7D79B01AC01C701B6010E94FB0E9B0119
:100A1000AC01F301608171818281938149D7F30137
:100A20006083718382839383C501B4010E94AA0FFE
:100A30009B01AC01C701B6010E94FB0E9B01AC01FA
:100A4000F301648175818681978132D7F3016483D4
:100A5000758386839783F201ED56FF4F80818F70F7
:100A600009F484C080818F7009F480C000E010E038
:100A7000F8AFEFAB1801220C331C220C331C220CF4
:100A8000331C201A310A240C351CF10167A570E0D3
:100A900080E090E00E94860D9B01AC01F301608133
:100AA00071818281938103D74B015C01F10160A9BF
:100AB00070E080E090E00E94860D9B01AC01F301A4
:100AC0006481758186819781F2D66B017C01A501D5
:100AD0009401C501B4010E94FB0E6BAB7CAB8DABE6
:100AE0009EABA5019401C501B4010E94FB0E4B0110
:100AF0005C01A7019601C701B6010E94FB0E9B0194
:100B0000AC01C501B401D4D60E94B40FD1D7F10114
:100B100064A760A9B7A470E080E090E0F7D7F30184
:100B20002481358146815781C2D66B017C016B2DB2
:100B300070E080E090E0EAD7F301208131814281CA
:100B40005381B5D69B01AC01C701B60144D714D778
:100B5000AFD7F10166A70F5F1F4FEFA9F8AD8081F6
:100B60008F7090E0081719070CF484CFF301838588
:100B70008F9382858F9381858F9380858F938781D3
:100B80008F9386818F9385818F9384818F938381C7
:100B90008F9382818F9381818F9380818F9386E061
:100BA00091E09F938F938E010F5F1F4F1F930F93C1
:100BB0000E942F17C8016DD6F3011486158616867C
:100BC00017860FB6F894DEBF0FBECDBFE8960FB6FE
:100BD000F894DEBF0FBECDBFDF91CF911F910F9173
:100BE000FF90EF90DF90CF90BF90AF909F908F904D
:100BF0007F906F905F904F903F902F9008950F934C
:100C00001F93CF93DF93EC018B01188219821A8214
:100C10001B82D2D5B801CE010CDE20E030E0F90114
:100C2000EE0FFF1FEE0FFF1FEE0FFF1FE21BF30B78
:100C3000EC0FFD1F12A613A614A615A616A62F5F6D
:100C40003F4F2F30310559F7DF91CF911F910F9111
:100C500008957F928F929F92AF92BF92CF92DF9230
:100C6000EF92FF920F931F93CF93DF93EC018B01D1
:100C70008C819D81813591052CF58C8580FD13C07B
:100C80008C8581608C87688179818A819B8110D76E
:100C90006A876D857E858F8598890AD76D8B89A532
:100CA0008F5F89A71AC18C8580FF17C189A58F5FC7
:100CB00089A78C819D8128853985820F931F99870B
:100CC00088870BC18C8580FFFDC089A5833008F41F
:100CD000F9C0688179818A819B8120E030E040E819
:100CE0005FE3E5D5E5D66B8769897A898B899C892D
:100CF000DFD66E8B8C858E7F8C87FE01ED56FF4F85
:100D000090819F708B852A85821BDE0127E0929F50
:100D1000A00DB11D11249A968C9320812F7030E084
:100D20004D898E8990E0840F911D95958795F901E5
:100D3000EE0FFF1FEE0FFF1FEE0FFF1FE21BF30B67
:100D4000EC0FFD1F84A77E0133E9E30EF11CF701D0
:100D500020812F708885998569A570E0615071099F
:100D60000E949414FE0137E0239FE00DF11D112431
:100D700065A7F70180818F70C82ED12CCE01CCDD04
:100D8000F601EE0FFF1FEE0FFF1FEE0FFF1FEC1916
:100D9000FD09EC0FFD1F83A7F70120812F709A85B5
:100DA00080818F70FE0137E0839FE00DF11D1124DB
:100DB00082A58695890FFE0197E0299FE00DF11D20
:100DC000112486A7F70180818F70C82ED12C8081D5
:100DD0008F70FE0127E0829FE00DF11D112474A4A5
:100DE000F70180818F70FE0127E0829FE00DF11DE9
:100DF000112466A570E080E090E086D6E9D54B012D
:100E00005C01672D70E080E090E080D6A501940140
:100E1000F2D7F801208131814281538149D548D6EA
:100E2000F601EE0FFF1FEE0FFF1FEE0FFF1FEC1975
:100E3000FD09EC0FFD1F67A7F70180818F70C82E99
:100E4000D12C80818F70FE0127E0829FE00DF11D83
:100E5000112474A4F70180818F70FE0127E0829F26
:100E6000E00DF11D112466A570E080E090E04CD605
:100E70000E94AA0F4B015C01672D70E080E090E0BA
:100E800045D6A5019401B7D7F80124813581468163
:100E900057810ED50DD6F601EE0FFF1FEE0FFF1F87
:100EA000EE0FFF1FEC19FD09EC0FFD1F60ABF70102
:100EB00080818F5F982F9F708081807F892B8083B6
:100EC00019A60BC08C8580FF08C019A61A861D8A3A
:100ED0008C858E7F8C87198618868C819D819F8357
:100EE0008E838D859E85AF85B889898B9A8BAB8BD8
:100EF000BC8BDF91CF911F910F91FF90EF90DF900E
:100F0000CF90BF90AF909F908F907F900895EF9279
:100F1000FF920F931F93CF93DF93EC01FC01ED56EB
:100F2000FF4F90819F7009F450C000E010E07F01F6
:100F3000F801EE0FFF1FEE0FFF1FEE0FFF1FE01B6C
:100F4000F10BEC0FFD1F23A58F898F7330E090E02C
:100F50002817390784F5F801EE0FFF1FEE0FFF1F6A
:100F6000EE0FFF1FE01BF10BEC0FFD1F82A5982F6A
:100F70009F738F89807C892B8F8B83A5982F9F717E
:100F80008295880F880F807C2F892F73822B8F8BFF
:100F900096959695888D887F892B888F84A5898FD3
:100FA00085A58A8F66A570E080E090E0ADD56B8F57
:100FB0007C8F8D8F9E8F0F5F1F4FF70180818F7009
:100FC00090E0081719070CF4B3CFDF91CF911F9170
:100FD0000F91FF90EF900895EF92FF920F931F9360
:100FE000CF93DF93EC01FC01ED56FF4F90819F7092
:100FF00009F465C000E010E07F01F801EE0FFF1F6B
:10100000EE0FFF1FEE0FFF1FE01BF10BEC0FFD1F9C
:1010100084A529A13AA190E08217930794F0F801E2
:10102000EE0FFF1FEE0FFF1FEE0FFF1FE01BF10B78
:10103000EC0FFD1F85A52BA13CA190E08217930723
:10104000A4F5F801EE0FFF1FEE0FFF1FEE0FFF1FBD
:10105000E01BF10BEC0FFD1F82A5982F9F738F8D66
:10106000807C892B8F8F83A5982F9F718295880F05
:10107000880F807C2F8D2F73822B8F8F969596955E
:1010800088A1887F892B88A384A590E09AA389A34F
:1010900085A590E09CA38BA366A570E080E090E01E
:1010A00033D56DA37EA38FA398A70F5F1F4FF701C2
:1010B00080818F7090E0081719070CF49ECFDF91A4
:1010C000CF911F910F91FF90EF9008958F929F9273
:1010D000AF92BF92CF92DF92EF92FF920F931F9346
:1010E000CF93DF93CDB7DEB7E5970FB6F894DEBFA9
:1010F0000FBECDBF8C014B0187E391E0CAD389E3DA
:1011000091E0C7D3E12CF12C0F2EF1E7AF2EF1E0E7
:10111000BF2EF02DCE0101966C01CFD2A0D2F801E6
:101120009583848320D3F801658776878787908BA2
:1011300085859685A785B08924813581BF93AF9336
:101140009F938F933F932F93FF92EF92BF92AF9213
:10115000DF92CF920E942F17C6019BD3B401C80122
:1011600078DDF801608171818281938120E030E037
:1011700040E85FE39DD3F8016083718382839383AA
:10118000C8011AD38AE090E02FD2FFEFEF1AFF0ACE
:101190000FB6F894DEBF0FBECDBF95EBE916F10494
:1011A00009F0BBCFC801B3DEC80116DFE5960FB664
:1011B000F894DEBF0FBECDBFDF91CF911F910F918D
:1011C000FF90EF90DF90CF90BF90AF909F908F9067
:1011D00008959F92AF92BF92CF92DF92EF92FF92CB
:1011E0000F931F93CF93DF93CDB7DEB7C45FD1408A
:1011F0000FB6F894DEBF0FBECDBFFC012789822F4A
:101200008295869586958370208D2770220F220FF8
:10121000282B37893F73A28CB18CC38CD48CE58C7E
:10122000F68C978D892F829586958695837090A1EF
:101230009770990F990F982B878D8F73982E03A114
:1012400014A1A1A1B2A145A156A167A170A5ED5617
:10125000FF4F80818F701F922F931F923F931F9299
:10126000AF921F92BF92FF92EF92DF92CF921F92A6
:101270009F931F929F921F930F93BF93AF937F9360
:101280006F935F934F931F928F9380EA91E09F93A8
:101290008F938E010F5F1F4F1F930F930E942F1785
:1012A000C801F7D20FB6F894DEBF0FBECDBFCC5049
:1012B000DE4F0FB6F894DEBF0FBECDBFDF91CF91EA
:1012C0001F910F91FF90EF90DF90CF90BF90AF9064
:1012D0009F90089564E370E081E090E00C94BB146B
:1012E0000895EBE9F0E0908195FFFDCF80939C009D
:1012F00008950F931F93CF93DF93082FC62F142FBA
:10130000D22F8BE8EEDF88E0C89FF0011124CC23B8
:1013100029F091E0011101C090E0E92F8E2FE1DF6B
:10132000812FDFDF8D2FDDDFDF91CF911F910F91B7
:1013300008950F931F93CF93DF93182F092FC62F74
:10134000D72F81E9CEDF802FCCDF812FCADF8D2F11
:10135000C8DF8C2FC6DFDF91CF911F910F910895C9
:10136000AF92BF92CF92DF92EF92FF920F931F93B3
:10137000CF93DF93C82F7B016A01A22EB32E8CE896
:10138000B0DF8C2FAEDF8E2DACDF1E141F0474F483
:10139000E6010A2D1B2DEC0CFD1C8991A2DFF80142
:1013A00081918F019EDFCE15DF05B9F7DF91CF91D7
:1013B0001F910F91FF90EF90DF90CF90BF90AF9073
:1013C0000895CF93C82F8DE88CDF8C2F8ADFCF91C3
:1013D0000895EBE9F0E080818823ECF780919C0090
:1013E0000895EF92FF920F931F93CF93DF937C01A9
:1013F00080919B00882344F4ACE9B0E0EBE9F0E095
:101400008C9180818823E4F38EE86BDF86E069DFCE
:10141000E70187010C5C1F4FDCDF8993C017D10700
:10142000D9F7F701848590E0982F88272585820FCA
:10143000911D95878487868590E0982F882727853A
:10144000820F911D97878687818990E0982F882742
:101450002289820F911D928B818B838990E0982F36
:1014600088272489820F911D948B838B868990E035
:10147000982F88272789820F911D978B868B808DC7
:1014800090E0982F8827218D820F911D918F808F5A
:10149000828D90E0982F8827238D820F911D938F46
:1014A000828F848D90E0982F8827258D820F911D43
:1014B000958F848F868D90E0982F8827278D820FB7
:1014C000911D978F868F80A190E0982F882721A16A
:1014D000820F911D91A380A382A190E0982F88276D
:1014E00023A1820F911D93A382A382A5482F50E0D0
:1014F00021A530E0322F2227240F351F36A325A344
:1015000090A9892F90E0982F8827840F951F95A781
:1015100084A782A990E0982F882723A9820F911D84
:1015200097A786A784A990E0982F882725A9820FDE
:10153000911D91AB80AB86A990E0982F882727A9B1
:10154000820F911D93AB82AB83E290E04DD0DF918F
:10155000CF911F910F91FF90EF9008950F931F93DC
:10156000CF93DF938C01C9E9D0E080E1888388E1E3
:1015700080939A0086E080939D0080E8B2DE81E847
:10158000B0DE88E0AEDE84E690E02ED081E2888393
:1015900084E8A7DE2FEF47E061E081E0AADEC80122
:1015A00020DFC8011EDFDF91CF911F910F910895B9
:1015B0001092E9021092E802811106C08BE085BD0D
:1015C00087B7806887BF07C0813029F489E085BD6F
:1015D00087B7806887BF7894089587B78F7787BF6C
:1015E00085B58F7785BD0895CF93DF93EC018AEFA2
:1015F00083BD1092E9021092E80280E0D9DF2091C9
:10160000E8023091E9022C173D07C8F3E6DFDF91CD
:10161000CF9108951F920F920FB60F9211248F93BE
:101620009F938091E8029091E90201969093E902DC
:101630008093E8029F918F910F900FBE0F901F90A3
:10164000189587B1826C87B986B1876886B9089585
:10165000399A369A3599FECF84B195B108950F9392
:101660001F93CF93DF93C5E0D0E000E010E0F0DF00
:10167000080F191F2197D9F7C80165E070E00E9493
:101680009414072E000C880B990B40D224E533EEFE
:1016900045E95FEB13D420E036E845EF56E4ABD3E1
:1016A00002D2CB01DF91CF911F910F9108951FBC02
:1016B00083EC8EBD80E287BF089587B78B7D87BF9F
:1016C0008C9A949A81E090E08FDF94988C9886B7FA
:1016D000806286BF87B7806287BF08951F920F928E
:1016E0000FB60F9211242F933F938F939F93809166
:1016F000E6029091E702892B39F486B597B590936D
:10170000E7028093E60222C08091E4029091E50214
:10171000892BE1F486B597B59093E5028093E402B6
:101720008091E4029091E5022091E6023091E70277
:10173000821B930B9093E3028093E2021092E702E4
:101740001092E6021092E5021092E4029EB580E447
:1017500089278EBD9F918F913F912F910F900FBE42
:101760000F901F9018956091E2027091E30280E063
:1017700090E0CAD120E034E244E758E42CD120E0E4
:101780003CEF45E856E437C3089583E280938B002D
:101790008AE180938A0088EF97EA9093870080938C
:1017A0008600149A83E09BE09093850080938400E8
:1017B00084EF91E019CF0895CF93DF93EC01688116
:1017C00079818A819B8120E030E044E353E4FCD0BE
:1017D00018163CF1688179818A819B8120E030E094
:1017E000A901FED28823ECF0688179818A819B81EE
:1017F00020E030E044E353E4EED02CEC3CE94CE54F
:1018000055E4F9D220E030EC4DE754E451D020E02B
:1018100030E040E85FE34BD04BD17093850060939C
:101820008400688179818A819B8120E030E044E3F3
:1018300053E4D6D218164CF480E090E0A4E3B3E46D
:1018400088839983AA83BB830EC0688179818A814A
:101850009B8120E030E0A901B7D0882324F41882CE
:1018600019821A821B82DF91CF9108959093900084
:1018700089B982E08BB988E18AB98EE080939500BE
:1018800008955D9BFECF8CB908955F9BFECF8CB110
:101890000895CF93DF93EC018881882329F0219666
:1018A000F0DF89918111FCCFDF91CF9108955058DD
:1018B000BB27AA270ED049C212D230F017D220F08F
:1018C00031F49F3F11F41EF4E2C10EF4E095E7FB02
:1018D000CAC1E92F5CD280F3BA1762077307840785
:1018E000950718F071F49EF574C20EF4E0950B2E76
:1018F000BA2FA02D0B01B90190010C01CA01A00162
:101900001124FF27591B99F0593F50F4503E68F1BC
:101910001A16F040A22F232F342F4427585FF3CFFD
:10192000469537952795A795F0405395C9F77EF4CE
:101930001F16BA0B620B730B840BBAF09150A1F017
:10194000FF0FBB1F661F771F881FC2F70EC0BA0F9D
:10195000621F731F841F48F4879577956795B79525
:10196000F7959E3F08F0B3CF9395880F08F099271D
:10197000EE0F979587950895DF93DD27B92FBF77F1
:1019800040E85FE31616170648075B0710F4D92FE7
:101990002BD29F938F937F936F9324D3ECE8F0E047
:1019A00079D1D3D12F913F914F915F9130D2DD23E7
:1019B00049F09058A2EA2AED3FE049EC5FE3D07885
:1019C0005D2787DFDF91C1C12AD108F481E0089546
:1019D00095D1E395CBC10CD0B8C188D140F07FD16F
:1019E00030F021F45F3F19F03EC15111F3C14FC1F6
:1019F000CED198F39923C9F35523B1F3951B550B19
:101A0000BB27AA2762177307840738F09F5F5F4FD1
:101A1000220F331F441FAA1FA9F333D00E2E3AF012
:101A2000E0E830D091505040E695001CCAF729D02C
:101A3000FE2F27D0660F771F881FBB1F261737077B
:101A40004807AB07B0E809F0BB0B802DBF01FF27AB
:101A500093585F4F2AF09E3F510568F004C1BAC108
:101A60005F3FECF3983EDCF3869577956795B795E5
:101A7000F7959F5FC9F7880F911D9695879597F900
:101A80000895E1E0660F771F881FBB1F6217730779
:101A90008407BA0720F0621B730B840BBA0BEE1F8E
:101AA00088F7E095089504D06894B11193C1089522
:101AB00076D188F09F5790F0B92F9927B751A0F0B1
:101AC000D1F0660F771F881F991F1AF0BA95C9F7D2
:101AD00012C0B13081F07DD1B1E008957AC1672F95
:101AE000782F8827B85F39F0B93FCCF38695779582
:101AF0006795B395D9F73EF490958095709561956B
:101B00007F4F8F4F9F4F0895E89409C097FB3EF495
:101B100090958095709561957F4F8F4F9F4F99233A
:101B2000A9F0F92F96E9BB279395F69587957795B8
:101B30006795B795F111F8CFFAF4BB0F11F460FF78
:101B40001BC06F5F7F4F8F4F9F4F16C0882311F0D0
:101B500096E911C0772321F09EE8872F762F05C0E4
:101B6000662371F096E8862F70E060E02AF09A957F
:101B7000660F771F881FDAF7880F9695879597F974
:101B80000895ADD018F011F0B1D038F480C022C162
:101B9000E92FFDD0B0F35523C9F3E7FB62177307B4
:101BA00084079507A8F199F3E92FFF2788232AF0E6
:101BB0003197660F771F881FDAF7952F5527442333
:101BC00032F091505040220F331F441FD2F7BB27F1
:101BD000E91BF50B621B730B840BB109C1F222F4F4
:101BE000620F731F841FB11D31972AF0660F771F94
:101BF000881FBB1FEFCF915050405AF041F088230F
:101C000032F0660F771F881F91505040C1F79395AF
:101C100030C08695779567959F5FD9F7F8CF990F74
:101C20000008550FAA0BE0E8FEEF16161706E807A6
:101C3000F907C0F012161306E407F50798F0621BC7
:101C4000730B840B950B39F40A2661F0232B242B9C
:101C5000252B21F408950A2609F4A140A6958FEFBB
:101C6000811D811D089597F99F6780E870E060E00D
:101C700008959F3F31F0915020F4879577956795AF
:101C8000B795880F911D9695879597F908959FEFC1
:101C900080EC0895DF93CF931F930F93FF92EF9201
:101CA000DF927B018C01689405C0DA2EEF01AFD082
:101CB000FE01E894A5912591359145915591AEF39A
:101CC000EF0107DEFE019701A801DA9479F7DF90B2
:101CD000EF90FF900F911F91CF91DF910895002415
:101CE0000A941616170618060906089500240A9481
:101CF00012161306140605060895C9CF50D0E8F34E
:101D0000E894E0E0BB279F57F0F02AED3FE049EC74
:101D100006C0EE0FBB0F661F771F881F28F0B23A70
:101D200062077307840728F0B25A620B730B840BA7
:101D3000E3959A9572F7803830F49A95BB0F661F39
:101D4000771F881FD2F7904896CF092E0394000C76
:101D500011F4882352F0BB0F40F4BF2B11F460FF45
:101D600004C06F5F7F4F8F4F9F4F0895EF93E0FF49
:101D700006C0A2EA2AED3FE049EC5FEBAADDE5DF11
:101D80000F90039401FC9058E9EBF0E086C157FDF9
:101D90009058440F551F59F05F3F71F04795880FD9
:101DA00097FB991F61F09F3F79F087950895121670
:101DB00013061406551FF2CF4695F1DF08C016161C
:101DC00017061806991FF1CF8695710561050894CD
:101DD0000895E894BB2766277727CB0197F90895E4
:101DE0001EDF08F48FEF08959B01AC0160E070E006
:101DF00080E89FE3F0CD0BD0A8CF71DF28F076DF2D
:101E000018F0952309F02FCF42CF1124E3CFBFDF85
:101E1000A0F3959FD1F3950F50E0551F629FF001FD
:101E2000729FBB27F00DB11D639FAA27F00DB11D56
:101E3000AA1F649F6627B00DA11D661F829F2227DF
:101E4000B00DA11D621F739FB00DA11D621F839F66
:101E5000A00D611D221F749F3327A00D611D231F3C
:101E6000849F600D211D822F762F6A2F11249F578A
:101E700050408AF0E1F088234AF0EE0FFF1FBB1FAD
:101E8000661F771F881F91505040A9F79E3F51054C
:101E900070F0E9CE9FCF5F3FECF3983EDCF3869580
:101EA00077956795B795F795E7959F5FC1F7FE2BF7
:101EB000880F911D9695879597F90895FA01EE0F71
:101EC000FF1F30962105310599F16115710561F407
:101ED0008038BFE39B0749F168949038810561F031
:101EE0008038BFEF9B0741F0992342F5FF3FE105A2
:101EF0003105210511F1E8940894E795D901AA2349
:101F000029F4AB2FBE2FF85FD0F310C0FF5F70F441
:101F1000A695E0F7F73950F019F0FF3A38F49F77BB
:101F20009F930CD00F9007FC905808953EF0AFCED1
:101F300060E070E080E89FE308954FE79F775F934C
:101F40004F933F932F93F5D02F913F914F915F91F6
:101F500052DF70C09F93D2DE0F9007FCEE5F06CF7A
:101F600011F40EF494CE85CE1ADFD0F39923D9F371
:101F7000CEF39F57550B87FF89D00024A0E640EA97
:101F8000900180585695979528F4805C660F771FCE
:101F9000881F20F026173707480730F4621B730BA1
:101FA000840B202931294A2BA695179407942025C4
:101FB00031254A2758F7660F771F881F20F026170C
:101FC0003707480730F4620B730B840B200D311D6B
:101FD000411DA09581F7B901842F9158880F9695DE
:101FE000879508959B01AC0106CFDF93D92F86DE3C
:101FF000E695D7952AED3FE049E45FE3B33A6207FF
:10200000730784079507D7952AF0A2EA49EC9068F0
:1020100060DC9BDEE7EDF0E040D0DD0F0BF0E4DEAE
:10202000DD0F0BF49058DF91089519F40EF01BCEDC
:10203000D0CE2DCEB4DEC8F39638C0F707F80F9295
:10204000E8942BE33AEA48EB5FE7E3DE0F920F9266
:102050000F924DB75EB70F92ACD0EAEFF0E01ADE08
:102060004F915F91EF91FF91E595EE1FFF1F49F0B2
:10207000FE57E0684427EE0F441FFA95E1F74195BB
:10208000550B1ED00F9007FEAFCE089591505040D3
:10209000660F771F881FD2F708959F938F937F93C2
:1020A0006F93FF93EF939B01AC01A5DEEF91FF913E
:1020B000F1DD2F913F914F915F919DCED4CDD9CD40
:1020C0006EDEE8F39923D9F3940F511DBBF39150C1
:1020D000504094F059F0882332F0660F771F881F24
:1020E00091505040C1F79E3F510544F7880F911D14
:1020F0009695879597F908955F3FACF0983E9CF0D0
:10210000BB27869577956795B79508F4B160939549
:10211000C1F7BB0F58F711F460FFE8CF6F5F7F4F37
:102120008F4F9F4FE3CF56CE0EF0A3CDB0CD689426
:102130009ACD35DEC8F39923D1F3C6F3DF93CF935D
:102140001F930F93FF92C92FDD2788232AF0219731
:10215000660F771F881FDAF720E030E040E85FEB7A
:102160009FE3883920F0803E30F021968F77A0DB06
:10217000E2E2F1E003C09CDBEFE4F1E08BDD8B01F8
:10218000BE01EC01FB2E6F5771097595771F880B07
:10219000990BBCDC28E132E741E35FE338DEAF2D89
:1021A0009801AE01FF900F911F91CF91DF9191DBCC
:1021B000CCCDFA01DC01AA0FBB1F9B01AC01BF57BC
:1021C00028F422273327442750781FC0B75188F4BA
:1021D000AB2F0024469537952795011CA395D2F384
:1021E000002069F0220F331F441FB395DAF30DD09E
:1021F0005ECB61307105A0E88A07B94630F49B01D7
:10220000AC016627772788279078309621F02083C5
:1022100031834283538308952F923F924F925F926E
:102220006F927F928F929F92AF92BF92CF92DF92E6
:10223000EF92FF920F931F93CF93DF93CDB7DEB74B
:1022400063970FB6F894DEBF0FBECDBF6C014B0194
:102250002A01FC0117821682838181FF29C3AE0106
:102260004F5F5F4F3A01F6019381F40193FD859131
:1022700093FF81914F01882309F416C3853239F405
:1022800093FD859193FF81914F01853231F4B60121
:1022900090E0ADD552012501E6CF10E0F12C20E011
:1022A0002032A0F48B3269F030F4803259F083325E
:1022B00069F420612CC08D3239F0803339F421600B
:1022C00026C02260246023C0286021C027FD27C0CB
:1022D00030ED380F3A3078F426FF06C0FAE01F9F41
:1022E000300D1124132F13C04AE0F49E300D112439
:1022F000F32E20620CC08E3221F426FDD5C220645C
:1023000006C08C3611F4206802C0883641F4F4010E
:1023100093FD859193FF81914F018111C1CF9BEB7B
:10232000980F933018F42061805E06C09BE9980FE7
:10233000933008F064C12F7E26FF16E02F73322EF3
:10234000853619F42064322E08C0863621F4F22F27
:10235000F0683F2E02C01111115037FE07C01C3328
:1023600050F4EE24E394E10E27E00BC0183038F06F
:1023700027E017E005C027E04CE3E42E02C0212F40
:10238000E12C520144E0A40EB11CF2016081718184
:10239000828193810E2DA30135D42C01098100FF88
:1023A00002C003FF07C031FC08C032FE09C030E2A2
:1023B000232E07C02DE2222E04C09BE2292E01C04D
:1023C000212C802F8C7019F0211051C28DC237FE44
:1023D0000FC0E40C04FF04C08A81813309F4EA943D
:1023E0001E1474F5F8E0FE1578F588E0E82E2CC090
:1023F00036FC2AC0812F90E0841595059CF02CEFC7
:1024000042162FEF520674F0432D4068342E0AC056
:10241000E2E0F0E0EC0FFD1FE10FF11D8081803361
:1024200019F411501111F4CF37FE0EC0EE24E394CD
:10243000E10E812F90E0481659062CF4141904C0BF
:10244000EE24E39401C010E037FE06C01414150416
:1024500034F4C201019605C085E090E002C081E03D
:1024600090E021100196112331F0212F30E02F5FF1
:102470003F4F820F931F2F2D30E08217930714F4E4
:10248000F81A01C0F12C832D897041F4FF2031F03E
:10249000B60180E290E0ABD4FA94F8CF222021F08C
:1024A000B601822D90E0A3D433FC08C0FF2031F0A8
:1024B000B60180E390E09BD4FA94F8CF37FE58C081
:1024C000942D852D57FE02C090E080E0292E382EF5
:1024D00020E030E0A2014E1951095D874C87A2012E
:1024E000421953095F874E87612F70E044275527B3
:1024F000461B570B598B488B5FEF2516350641F469
:10250000B6018EE290E02A8B3B8B71D43B892A89FD
:10251000421453046CF04C855D854215530544F418
:10252000EE85FF85E20FF31FE60DF71D818101C0E7
:1025300080E351E0251A31082F5F3F4F48895989C0
:102540002416350644F0B60190E02A8B3B8B4FD41D
:102550002A893B89D1CF2414350439F49A819633E2
:1025600018F4953311F404FF81E3B60190E045C0FF
:102570008A81813309F00F7EB60190E038D41111C1
:1025800005C034FC16C085E690E015C0B6018EE2A9
:1025900090E02DD482E0EE24E394E80EF301E80FFE
:1025A000F11D8081B60190E022D411508E2D99F753
:1025B000E8CF85E490E0B6011AD457FC05C0411479
:1025C000510439F404FF05C05194419451088DE23F
:1025D00001C08BE2B60190E00AD480E39AE049168C
:1025E00051042CF08F5F5AE0451A5108F7CFB6011D
:1025F00090E0FDD3B601C201C096F9D34CC1833639
:1026000031F0833779F0833509F054C020C052018E
:10261000E2E0AE0EB11CF2018081898301E010E09E
:10262000230113C05201F2E0AF0EB11CF201408051
:10263000518026FF03C0612F70E002C06FEF7FEF73
:10264000C2012A8BC9D38C012A892F7714C0520169
:10265000F2E0AF0EB11CF2014080518026FF03C0B2
:10266000612F70E002C06FEF7FEFC2012A8BA2D30F
:102670008C012A892068322E23FD18C08F2D90E00E
:102680000817190798F4B60180E290E0B0D3FA94E5
:10269000F5CFF20137FC859137FE81912F01B6010C
:1026A00090E0A5D3F110FA9401501109011511051C
:1026B00081F7F1C0843611F0893651F5520127FFB8
:1026C00009C0F4E0AF0EB11CF2016081718182811A
:1026D00093810AC0F2E0AF0EB11CF20160817181FA
:1026E000072E000C880B990B2F76322E97FF09C00E
:1026F00090958095709561957F4F8F4F9F4F206883
:10270000322E2AE030E0A301D9D3E82EE6183EC0ED
:10271000022F853721F40F7E2AE030E01DC0097FAB
:102720008F3691F018F4883559F0BEC0803719F013
:10273000883711F0B9C0006104FF09C0046007C008
:1027400024FF08C0066006C028E030E005C020E194
:1027500030E002C020E132E0520107FF09C0F4E09E
:10276000AF0EB11CF201608171818281938108C03A
:10277000F2E0AF0EB11CF2016081718180E090E067
:10278000A3019CD3E82EE6180F77302E36FE0BC03F
:10279000332D3E7FE11650F434FE0AC032FC08C0EF
:1027A000332D3E7E05C00E2D332D03C00E2D01C0EE
:1027B000012F34FF0CC0FE01EE0DF11D808180332E
:1027C00011F4397E08C032FF05C00E5F04C0832FAC
:1027D000867809F00F5F33FD12C030FF06C01E2D52
:1027E0000F1518F41F0D101B0F2D0F1560F4B601F7
:1027F00080E290E03B8BFBD20F5F3B89F6CF0F1559
:1028000010F4F01A01C0F12C34FF11C0B60180E3BE
:1028100090E03B8BECD23B8932FF16C031FD03C008
:1028200088E790E002C088E590E0B6010CC0832FF5
:10283000867851F031FF02C08BE201C080E237FDA3
:102840008DE2B60190E0D3D2E11630F4B60180E318
:1028500090E0CDD21150F8CFEA94F301EE0DF11DC6
:102860008081B60190E0C3D2E110F6CF14C0F4E04D
:10287000FF1548F584E0F81A33FE1DC0211024C06E
:1028800003FF27C00CE711E0F32DF0713F2EF80194
:102890008491811121C0FF2009F4FDCCB60180E2B2
:1028A00090E0A5D2FA94F7CFF6018681978123C0F4
:1028B0008FEF9FEF20C0B60180E290E098D2FA94AB
:1028C000F110F9CFDBCFF12CB601822D90E08FD241
:1028D000D7CF00E811E0D8CF31108052B60190E098
:1028E00086D20F5F1F4FD3CF23E02F1510F483E064
:1028F000C2CFF12CC5CF63960FB6F894DEBF0FBEE2
:10290000CDBFDF91CF911F910F91FF90EF90DF909E
:10291000CF90BF90AF909F908F907F906F905F907F
:102920004F903F902F90089597FB072E16F4009438
:1029300006D077FD08D00BD007FC05D03EF490956B
:1029400081959F4F0895709561957F4F0895AA1BBB
:10295000BB1B51E107C0AA1FBB1FA617B70710F08A
:10296000A61BB70B881F991F5A95A9F780959095BC
:10297000BC01CD0108950F931F93CF93DF93869FE2
:102980008001879F100D969F100D1124C8010DD056
:10299000EC01009721F0A80160E070E016D2CE01B2
:1029A000DF91CF911F910F910895CF93DF938230E4
:1029B000910510F482E090E0E091EC02F091ED02DC
:1029C00020E030E0C0E0D0E0309711F1408151814B
:1029D00048175907C0F04817590761F4828193815D
:1029E000209719F09B838A832BC09093ED028093EC
:1029F000EC0226C02115310519F04217530718F4CF
:102A00009A01BE01DF01EF010280F381E02DDCCFEE
:102A10002115310509F1281B390B2430310590F4BB
:102A200012968D919C9113976115710521F0FB0110
:102A30009383828304C09093ED028093EC02FD01A6
:102A4000329644C0FD01E20FF31F8193919322500F
:102A500031092D933C933AC02091EA023091EB0268
:102A6000232B41F420910201309103013093EB02BA
:102A70002093EA02209100013091010121153105D6
:102A800041F42DB73EB74091040150910501241B3C
:102A9000350BE091EA02F091EB02E217F307A0F4A4
:102AA0002E1B3F0B2817390778F0AC014E5F5F4FA4
:102AB0002417350748F04E0F5F1F5093EB024093E9
:102AC000EA028193919302C0E0E0F0E0CF01DF9150
:102AD000CF9108950F931F93CF93DF93009709F43D
:102AE0008CC0FC013297138212820091EC0210918B
:102AF000ED020115110581F420813181820F931FB0
:102B00002091EA023091EB022817390779F5F0930A
:102B1000EB02E093EA0271C0D80140E050E0AE174A
:102B2000BF0750F412962D913C911397AD012115DA
:102B3000310509F1D901F3CF9D01DA0133832283F5
:102B400060817181860F971F8217930769F4EC01EA
:102B500028813981260F371F2E5F3F4F3183208315
:102B60008A819B8193838283452B29F4F093ED0224
:102B7000E093EC0242C01396FC93EE931297ED01A2
:102B8000499159919E01240F351FE217F30771F403
:102B900080819181840F951F029611969C938E934C
:102BA0008281938113969C938E931297E0E0F0E0DC
:102BB000D80112968D919C911397009719F0F80106
:102BC0008C01F6CF8D919C9198012E5F3F4F820F23
:102BD000931F2091EA023091EB022817390769F41C
:102BE000309729F41092ED021092EC0202C0138289
:102BF00012821093EB020093EA02DF91CF911F91B2
:102C00000F910895283008F027E03327DA01990F53
:102C1000311D87FD916000966105710539F43260C0
:102C20002E5F3D9330E32A95E1F708959F3F30F002
:102C300080387105610509F03C5F3C5F3D93913040
:102C400008F08068911DDF93CF931F930F93FF923D
:102C5000EF92192F987F9695E92F96959695E90F03
:102C6000FF27E252FE4F99273327EE24FF24A701C6
:102C7000E70105900894079428F4360FE71EF81E24
:102C8000491F511D660F771F881F991F0694A1F7D2
:102C90000590079428F4E70EF81E491F561FC11D22
:102CA000770F881F991F661F0694A1F70590079458
:102CB00028F4F80E491F561FC71FD11D880F991FF2
:102CC000661F771F0694A1F70590079420F4490F1B
:102CD000561FC71FD81F990F661F771F881F06949E
:102CE000A9F784911095177041F0D695C79557951F
:102CF0004795F794E7941A95C1F7E4E8F1E06894F2
:102D00001590159135916591959105907FE2739598
:102D1000E118F10A430B560BC90BD009C0F7E10CBF
:102D2000F11E431F561FC91FD01D7EF4703311F4CE
:102D30008A95E6CFE894015030F0080F0AF4002796
:102D4000021708F4202F2395022F7A3328F079E315
:102D50007D932A95E9F710C07D932A9589F606940C
:102D600097956795379517951794E118F10A430BD6
:102D7000560BC90BD00998F023957E9173957A3341
:102D800008F070E37C932013B8F77E9170617D9317
:102D900030F0839571E37D9370E32A95E1F7112478
:102DA000EF90FF900F911F91CF91DF91992787FDB1
:102DB00090950895FC010590615070400110D8F77E
:102DC000809590958E0F9F1F0895DC0101C06D9333
:102DD00041505040E0F70895FC016150704001906F
:102DE0000110D8F7809590958E0F9F1F08950F932F
:102DF0001F93CF93DF93FB01238121FD03C08FEF4E
:102E00009FEF28C022FF16C046815781248135815B
:102E10004217530744F4A081B1819D012F5F3F4FBA
:102E2000318320838C93268137812F5F3F4F3783F7
:102E3000268310C0EB01092F182F0084F185E02DA7
:102E40000995892BE1F68E819F8101969F838E8360
:102E5000812F902FDF91CF911F910F9108950F93A4
:102E60001F93CF93DF93CDB7DEB72E970FB6F894AD
:102E7000DEBF0FBECDBF0D891E8986E08C831A830D
:102E800009838FEF9FE79E838D83AE01475E5F4F7F
:102E90006F89788DCE010196BFD92F813885F801D1
:102EA000E20FF31F10822E960FB6F894DEBF0FBE0E
:102EB000CDBFDF91CF911F910F910895FA01AA27FD
:102EC000283051F1203181F1E8946F936E7F6E5F6D
:102ED0007F4F8F4F9F4FAF4FB1E03ED0B4E03CD01B
:102EE000670F781F891F9A1FA11D680F791F8A1FFE
:102EF000911DA11D6A0F711D811D911DA11D20D065
:102F000009F468943F912AE0269F11243019305D1E
:102F10003193DEF6CF010895462F4770405D41930F
:102F2000B3E00FD0C9F7F6CF462F4F70405D4A335C
:102F300018F0495D31FD4052419302D0A9F7EACF24
:102F4000B4E0A6959795879577956795BA95C9F753
:102F500000976105710508959B01AC010A2E069446
:102F60005795479537952795BA95C9F7620F731FFF
:0C2F7000841F951FA01D0895F894FFCF4A
:102F7C000000EE0220000D0A426F7420583A202502
:102F8C002E336C660D0A426F7420593A20252E336D
:102F9C006C660D0A426F7420416E676C653A202591
:102FAC002E336C660D0A000C004465677265657300
:102FBC002020202020202049522044697374616E07
:102FCC0063652028636D2920202020536F6E617269
:102FDC002044697374616E63652028636D290D0A42
:102FEC0000252D336420202020202020202020208C
:102FFC002020252D3464202020202020202020205B
:10300C0020202020202020252D332E34660D0A0070
:10301C000D0A0A4F626A6563747320666F756E647D
:10302C003A2025640D0A0A436C6F73657374204F44
:10303C00626A656374205374617469737469637331
:10304C003A0D0A4F626A65637420706F7369746914
:10305C006F6E3A20252E3166206465677265657344
:10306C000D0A534F4E41522064697374616E63654F
:10307C002028636D293A2025640D0A495220646981
:10308C007374616E63652028636D293A2025640D85
:10309C000A416E67756C61722077696474683A20B6
:1030AC0025640D0A4C696E656172207769647468D9
:1030BC002028636D293A2025640D0A0A536D616C32
:1030CC006C657374204F626A656374205374617409
:1030DC006973746963733A0D0A4F626A656374208D
:1030EC00706F736974696F6E3A20252E3166206497
:1030FC006567726565730D0A534F4E4152206469C2
:10310C007374616E63652028636D293A2025640D04
:10311C000A49522064697374616E63652028636D7B
:10312C00293A2025640D0A416E67756C617220770F
:10313C00696474683A2025640D0A4C696E65617285
:10314C002077696474682028636D293A2025640D02
:02315C000A0067
:00000001FF
